:100000000C9462000C948A000C948A000C948A0070
:100010000C948A000C948A000C948A000C948A0038
:100020000C948A000C948A000C948A000C948A0028
:100030000C948A000C948A000C948A000C948A0018
:100040000C94A9020C948A000C9419030C94F302EA
:100050000C948A000C948A000C948A000C948A00F8
:100060000C948A000C948A000000000024002700F1
:100070002A0000000000250028002B0000000000DE
:1000800023002600290004040404040404040202DA
:100090000202020203030303030301020408102007
:1000A0004080010204081020010204081020000012
:1000B0000008000201000003040700000000000027
:1000C00000009C0411241FBECFEFD8E0DEBFCDBFDF
:1000D00011E0A0E0B1E0E6EEF9E002C005900D927B
:1000E000A234B107D9F721E0A2E4B1E001C01D922A
:1000F000A83EB207E1F710E0C2E6D0E004C02197C5
:10010000FE010E94EB04C136D107C9F70E944B03E0
:100110000C94F1040C940000833081F028F48130B9
:1001200099F08230A9F008958730A9F08830C9F09D
:100130008430B1F4809180008F7D03C08091800075
:100140008F7780938000089584B58F7784BD08955C
:1001500084B58F7DFBCF8091B0008F778093B00006
:1001600008958091B0008F7DF9CFCF93DF93282F32
:1001700030E0F901E255FF4F8491F901E656FF4F57
:10018000D491F901EA57FF4FC491CC23A1F081111A
:100190000E948C00EC2FF0E0EE0FFF1FE458FF4FA1
:1001A000A591B491EC91ED2381E090E009F480E019
:1001B000DF91CF91089580E090E0FACF1F93CF9325
:1001C000DF93282F30E0F901E255FF4F8491F901C8
:1001D000E656FF4FD491F901EA57FF4FC491CC2363
:1001E000A9F0162F81110E948C00EC2FF0E0EE0F89
:1001F000FF1FEE58FF4FA591B4918FB7F894EC9183
:10020000111108C0D095DE23DC938FBFDF91CF9111
:100210001F910895DE2BF8CFCF93DF9390E0FC0180
:10022000E656FF4F24918A579F4FFC018491882303
:10023000D1F090E0880F991FFC01E859FF4FA5917C
:10024000B491FC01EE58FF4FC591D49161110EC0DD
:100250009FB7F8948C91E22FE0958E238C932881A0
:10026000E223E8839FBFDF91CF9108958FB7F89481
:10027000EC91E22BEC938FBFF6CFAF92BF92CF926F
:10028000DF92EF92FF920F931F93CF93DF936C0156
:100290007B018B01040F151FEB015E01AE18BF0837
:1002A000C017D10759F06991D601ED91FC910190E9
:1002B000F081E02DC6010995892B79F7C501DF9101
:1002C000CF911F910F91FF90EF90DF90CF90BF9053
:1002D000AF900895FC01538D448D252F30E0842F7D
:1002E00090E0821B930B541710F0CF96089501975E
:1002F0000895FC01918D828D981761F0A28DAE0F4B
:10030000BF2FB11D5D968C91928D9F5F9F73928FD1
:1003100090E008958FEF9FEF0895FC01918D828DFD
:10032000981731F0828DE80FF11D858D90E00895CA
:100330008FEF9FEF0895FC01918D228D892F90E022
:10034000805C9F4F821B91098F73992708958BE4DE
:1003500091E00E949B0121E0892B09F420E0822F8B
:10036000089580E090E0892B29F00E94A701811177
:100370000C9400000895FC01A48DA80FB92FB11DA5
:10038000A35ABF4F2C91848D90E001968F739927CB
:10039000848FA689B7892C93A089B1898C918370A9
:1003A00080648C93938D848D981306C00288F389A2
:1003B000E02D80818F7D80830895EF92FF920F93CF
:1003C0001F93CF93DF93EC0181E0888F9B8D8C8D01
:1003D00098131AC0E889F989808185FF15C09FB7F5
:1003E000F894EE89FF896083E889F98980818370B8
:1003F000806480839FBF81E090E0DF91CF911F9167
:100400000F91FF90EF900895F62E0B8D10E00F5F87
:100410001F4F0F731127E02E8C8D8E110CC00FB65D
:1004200007FCFACFE889F989808185FFF5CFCE01F5
:100430000E94BB01F1CFEB8DEC0FFD2FF11DE35AB4
:10044000FF4FF0829FB7F8940B8FEA89FB89808178
:100450008062CFCFCF93DF93EC01888D8823B9F0F2
:10046000AA89BB89E889F9898C9185FD03C08081BF
:1004700086FD0DC00FB607FCF7CF8C9185FFF2CF3C
:10048000808185FFEDCFCE010E94BB01E9CFDF91D6
:10049000CF910895FC0101900020E9F73197AF0159
:1004A000481B590BBC018BE491E00C943D018F92E9
:1004B0009F92AF92BF920F931F93CF93DF93CDB7CD
:1004C000DEB7A1970FB6F894DEBF0FBECDBF19A25D
:1004D000423008F44AE08E010F5D1F4F842E912CAC
:1004E000B12CA12CA50194010E94C904E62FB901E9
:1004F000CA01EA30F4F4E05DD801EE938D01232BBC
:10050000242B252B79F790E080E0109719F0CD018E
:100510000E944A02A1960FB6F894DEBF0FBECDBF6F
:10052000DF91CF911F910F91BF90AF909F908F90CF
:100530000895E95CE1CFCF93DF930E944A02EC017A
:1005400082E191E00E944A028C0F9D1FDF91CF91C2
:1005500008951F920F920FB60F9211242F933F937D
:100560008F939F93AF93BF938091470190914801E0
:10057000A0914901B0914A013091460123E0230F37
:100580002D3758F50196A11DB11D2093460180938A
:10059000470190934801A0934901B0934A0180918B
:1005A000420190914301A0914401B091450101960F
:1005B000A11DB11D8093420190934301A09344017A
:1005C000B0934501BF91AF919F918F913F912F9132
:1005D0000F900FBE0F901F90189526E8230F0296DC
:1005E000A11DB11DD2CF1F920F920FB60F921124F1
:1005F0002F933F934F935F936F937F938F939F932B
:10060000AF93BF93EF93FF938BE491E00E94BB0104
:10061000FF91EF91BF91AF919F918F917F916F91DA
:100620005F914F913F912F910F900FBE0F901F90B0
:1006300018951F920F920FB60F9211242F938F933C
:100640009F93EF93FF93E0915B01F0915C018081B8
:10065000E0916101F091620182FD1BC09081809167
:1006600064018F5F8F7320916501821741F0E091E3
:100670006401F0E0E55BFE4F958F80936401FF918C
:10068000EF919F918F912F910F900FBE0F901F9020
:1006900018958081F4CF789484B5826084BD84B548
:1006A000816084BD85B5826085BD85B5816085BD6D
:1006B00080916E00816080936E0010928100809125
:1006C00081008260809381008091810081608093AD
:1006D0008100809180008160809380008091B100D2
:1006E00084608093B1008091B00081608093B000FD
:1006F00080917A00846080937A0080917A00826091
:1007000080937A0080917A00816080937A00809152
:100710007A00806880937A001092C10061E089E0DD
:100720000E940C0161E083E00E940C0161E088E01E
:100730000E940C0161E087E00E940C0161E085E00D
:100740000E940C0161E084E00E940C0160E08AE0FC
:100750000E940C0160E08BE00E940C0160E08CE0E4
:100760000E940C0161E089E00E940C0161E089E0D7
:100770000E94DE0061E083E00E940C0161E083E002
:100780000E94DE0060E088E00E94DE0060E087E01A
:100790000E94DE0060E085E00E94DE0060E084E010
:1007A0000E94DE00E0915B01F0915C0182E08083B9
:1007B000E0915701F09158011082E0915901F091B8
:1007C0005A018FEC808310926301E0915F01F091F8
:1007D000600186E08083E0915D01F0915E0180819F
:1007E00080618083E0915D01F0915E01808188608D
:1007F0008083E0915D01F0915E018081806880835B
:10080000E0915D01F0915E0180818F7D808385E1C3
:1008100091E00E949B0280E0A82E80E0B82E8AE042
:100820000E94B5008C018BE00E94B5008CE00E9414
:10083000B500EC016801012E000CEE08FF084AE04B
:10084000C701B601F7FE0DC06DE28BE491E00E9496
:10085000DD0166277727CB016C197D098E099F0979
:100860004AE00E94570282E191E00E944A026E0132
:100870000D2E000CEE08FF084AE0C701B601F7FE96
:100880000DC06DE28BE491E00E94DD0166277727C1
:10089000CB016C197D098E099F094AE00E9457021D
:1008A00082E191E00E944A0201301105B9F5C130A0
:1008B000D10591F484E291E00E949B0260E088E01F
:1008C0000E94DE0061E087E00E94DE0061E085E0DA
:1008D0000E94DE0060E013C0CD2BA1F48CE291E019
:1008E0000E949B0260E088E00E94DE0061E087E0F9
:1008F0000E94DE0060E085E00E94DE0061E084E0AE
:100900000E94DE00A114B10409F489CF0E94A7015E
:10091000882309F484CF0E94000081CF012B91F736
:10092000219781F786E391E00E949B0261E088E0D5
:100930000E94DE0060E0C7CFEBE4F1E01382128298
:1009400088EE93E0A0E0B0E084839583A683B7832C
:1009500084E091E09183808385EC90E095878487A3
:1009600084EC90E09787868780EC90E0918B808B79
:1009700081EC90E0938B828B82EC90E0958B848B62
:1009800086EC90E0978B868B118E128E138E148ED0
:100990000895A1E21A2EAA1BBB1BFD010DC0AA1FC0
:1009A000BB1FEE1FFF1FA217B307E407F50720F0D8
:1009B000A21BB30BE40BF50B661F771F881F991F53
:1009C0001A9469F760957095809590959B01AC019C
:1009D000BD01CF010895EE0FFF1F0590F491E02DAA
:0609E0000994F894FFCF1A
:1009E60000000000DD013D016A012A029B01790138
:1009F6008D010D0A0048656C6C6F206C696E65622E
:100A06006F742100666F7277617264007475726E1E
:100A1600206C656674007475726E207269676874FE
:020A26000000CE
:00000001FF
